:020000040000FA
:100000000C9485020C94AD020C94AD020C94AD02DC
:100010000C94AD020C94AD020C94AD020C94AD02A4
:100020000C94AD020C94AD020C94AD020C94370C00
:100030000C94AD020C94AD020C94AD020C94AD0284
:100040000C94760A0C94AD020C94E60A0C94C00A47
:100050000C94AD020C94AD020C94AD020C94AD0264
:100060000C94180B0C94AD0205A84CCDB2D44EB92B
:100070003836A9020C50B9918688083CA6AAAA2A4B
:10008000BE000000803F42617365206E6F74653A68
:10009000206A6F696E74203020697320636F6E74FC
:1000A000696E756F757320736572766F2C203930A9
:1000B0003D73746F702C203C3930206F6E65207753
:1000C00061792C203E3930206F7468657220776129
:1000D000792E002020312D362073656C65637420E5
:1000E0006A6F696E742C20612F7A206A6F67202DE9
:1000F0002F2B202C206D2073657269616C2C206E73
:10010000206E756E636875636B2C20642064656D6A
:100110006F004B6579733A00202073746570203C42
:100120006A3E203C643E206164642064656C7461B6
:1001300020746F206A6F696E7400202073657420CC
:100140003C6A3E203C613E2020736574206A6F69E2
:100150006E7420616E676C652F73706565642063D3
:100160006D6400202073656C203C302D353E2020CE
:10017000202073656C656374206A6F696E7400205B
:10018000206D6F646520737C6E7C64202020736515
:100190007269616C2F6E756E636875636B2F646531
:1001A0006D6F00202070696E732020202020202099
:1001B000202073686F7720736572766F207769727D
:1001C000696E670020207020202020202020202021
:1001D0002020207072696E742073746174757300CE
:1001E0002020682F68656C7020202020202020733C
:1001F000686F772068656C7000436F6D6D616E6429
:10020000733A00507265737320312D3620746F205D
:1002100073656C6563742C20612F7A20746F206D78
:100220006F76652C207020666F722066756C6C206E
:100230007374617475732E00207C207467743D00A4
:10024000207C206375723D003A20002020002000B1
:10025000207C2053656C65637465643A20004D6FA3
:1002600064653A2000626173650067726970706549
:10027000720077726973745F706974636800777273
:100280006973745F726F6C6C00656C626F7700737A
:10029000686F756C6465720073657269616C006E7D
:1002A000756E636875636B0064656D6F00207C20FC
:1002B0007467743D006375723D00636D643D00209A
:1002C0007C200020005D206A6F696E7420005B0056
:1002D0002C207467743D00202D3E206375723D0014
:1002E000202D3E20636D643D0020004A6F696E74CE
:1002F000200000000000240027002A00526F626FD7
:100300007469632061726D20636F6E74726F6C6CC0
:10031000657220737461727465642E004261736546
:1003200020736572766F3A20636F6E74696E756FB5
:10033000757320726F746174696F6E206F6E2044E4
:10034000332C2075736520636F6D6D616E64206E54
:1003500065617220393020746F2073746F702E00C5
:10036000496D706F7274616E743A2069662075739E
:10037000696E672065787465726E616C2073657252
:10038000766F20706F7765722C20636F6E6E656379
:10039000742065787465726E616C20474E442074D9
:1003A0006F2041726475696E6F20474E442E005075
:1003B0006F7765723A20736572766F20726564207C
:1003C0002D3E2035562F65787465726E616C202B3A
:1003D0002C2062726F776E2F626C61636B202D3EF2
:1003E00020474E442C207369676E616C202D3E209F
:1003F0004478002020352067726970706572202073
:100400002020202D3E2044313100202034207772DE
:100410006973745F7069746368202D3E20443130C5
:10042000002020332077726973745F726F6C6C20C8
:10043000202D3E2044390020203220656C626F77E9
:10044000202020202020202D3E2044360020203156
:100450002073686F756C646572202020202D3E200B
:100460004435002020302062617365202020202048
:100470002020202D3E20443300536572766F207774
:100480006972696E673A00626164206A6F696E74AE
:1004900000756E6B6E6F776E20636F6D6D616E644D
:1004A00000626164206A6F696E7400626164206A30
:1004B0006F696E7400756E6B6E6F776E206D6F6412
:1004C000650000000000250028002B00040404043F
:1004D00004040404020202020202030303030303EE
:1004E00001020408102040800102040810200102CB
:1004F00004081020000000080002010000030407A7
:100500000000000000000000F30C11241FBECFEF1C
:10051000D8E0DEBFCDBF11E0A0E0B1E0E2EBFCE24D
:1005200002C005900D92AC3CB107D9F723E0ACECCA
:10053000B1E001C01D92AF3AB207E1F712E0C5E8A1
:10054000D2E004C02197FE010E945116C438D107A1
:10055000C9F70E946A0D0C9457160C94000090E0A5
:10056000FC01EC50FB4F2491FC01E052FB4F349115
:10057000FC01E453FB4FE491EE23C9F0222339F050
:10058000233001F1A8F4213019F1223029F1F0E0F3
:10059000EE0FFF1FEE53FB4FA591B4918FB7F89468
:1005A000EC91611126C030953E233C938FBF089596
:1005B0002730A9F02830C9F0243049F78091800015
:1005C0008F7D03C0809180008F7780938000DFCF84
:1005D00084B58F7784BDDBCF84B58F7DFBCF8091D1
:1005E000B0008F778093B000D2CF8091B0008F7D24
:1005F000F9CF3E2BDACF3FB7F894809179029091F2
:100600007A02A0917B02B0917C0226B5A89B05C01E
:100610002F3F19F00196A11DB11D3FBFBA2FA92F81
:10062000982F8827BC01CD01620F711D811D911D7E
:1006300042E0660F771F881F991F4A95D1F70895EA
:100640008F929F92AF92BF92CF92DF92EF92FF92E2
:100650004B015C010E94FB026B017C010E94FB02CA
:100660006C197D098E099F09683E734081059105CB
:10067000A8F321E0821A9108A108B10888EEC80EFB
:1006800083E0D81EE11CF11C81149104A104B10483
:1006900029F7FF90EF90DF90CF90BF90AF909F90A1
:1006A0008F9008952FB7F89460917502709176023B
:1006B00080917702909178022FBF08950895089550
:1006C000AF92BF92CF92DF92EF92FF920F931F9360
:1006D000CF93DF936C017B018B01040F151FEB019E
:1006E0005E01AE18BF08C017D10759F06991D60155
:1006F000ED91FC910190F081E02DC6010995892BC7
:1007000079F7C501DF91CF911F910F91FF90EF9085
:10071000DF90CF90BF90AF900895FC01538D448D32
:10072000252F30E0842F90E0821B930B541710F09C
:10073000CF96089501970895FC01918D828D9817A9
:1007400061F0A28DAE0FBF2FB11D5D968C91928D81
:100750009F5F9F73928F90E008958FEF9FEF0895B2
:10076000FC01918D828D981731F0828DE80FF11D7B
:10077000858D90E008958FEF9FEF0895FC01918D96
:10078000228D892F90E0805C9F4F821B91098F738F
:10079000992708958DEC92E00E94BE0321E0892BF9
:1007A00009F420E0822F089580E090E0892B29F061
:1007B0000E94CA0381110C9400000895FC01A48DCD
:1007C000A80FB92FB11DA35ABF4F2C91848D90E073
:1007D00001968F739927848FA689B7892C93A08956
:1007E000B1898C91837080648C93938D848D9813E0
:1007F00006C00288F389E02D80818F7D8083089573
:10080000EF92FF920F931F93CF93DF93EC0181E060
:10081000888F9B8D8C8D98131AC0E889F989808107
:1008200085FF15C09FB7F894EE89FF896083E8893A
:10083000F98980818370806480839FBF81E090E02C
:10084000DF91CF911F910F91FF90EF900895F62EB9
:100850000B8D10E00F5F1F4F0F731127E02E8C8D53
:100860008E110CC00FB607FCFACFE889F989808198
:1008700085FFF5CFCE010E94DE03F1CFEB8DEC0FAB
:10088000FD2FF11DE35AFF4FF0829FB7F8940B8FB5
:10089000EA89FB8980818062CFCF0F931F93CF932A
:1008A000DF938C01D0E0C0E0F801EC0FFD1F6491F4
:1008B000662341F08DEC92E00E940004892B11F038
:1008C0002196F2CFCE01DF91CF911F910F91089524
:1008D000CF93DF93EC01888D8823B9F0AA89BB8977
:1008E000E889F9898C9185FD03C0808186FD0DC062
:1008F0000FB607FCF7CF8C9185FFF2CF808185FF83
:10090000EDCFCE010E94DE03E9CFDF91CF910895B4
:100910002091FA01260F3327331F21323105ECF4E1
:100920002091A302FC0190E080E0243069F082E095
:100930000895A091FA012191AC0146525E4FA40F97
:10094000B52FB11D2C930196861798F38091FA016B
:10095000680F6093FA0180E0089581E00895109295
:10096000A30281E08093A20210927D0261E082E105
:100970000E94AF0261E083E10E94AF02E9EBF0E088
:1009800080818E7F808380818D7F808388E48093C7
:10099000B80085E48093BC000895CF93DF9391E085
:1009A0009093D9018823B9F0C091B800D091BA00D2
:1009B0008091BC008A7B8093BC0060E082E10E9451
:1009C000AF0260E083E10E94AF020E94AF04D093C7
:1009D000BA00C093B800DF91CF9108958F929F9293
:1009E000AF92BF92CF92DF92EF92FF920F931F933D
:1009F000CF93DF93D091CC02D13208F0D7C0182F1B
:100A0000C091CB020E94FB026B017C018091A3028A
:100A100081116BC082E08093A3021093A2028FEF3A
:100A20008093A1021092A002D0939F02ABEAB2E0A1
:100A3000EFE7F2E080E0D81391C010927E0280913F
:100A40007E02CC0FC82BC0937E0280917D02813044
:100A500009F088C010927D020E94FB026B017C01AC
:100A600080917E028093BB008091A5029091A602A6
:100A7000A091A702B091A802892B8A2B8B2BA1F001
:100A80000E94FB020091A5021091A6022091A702EC
:100A90003091A8026C197D098E099F090617170766
:100AA0002807390708F442C08091BC0083FDD8CFE5
:100AB00085EC8093BC000E94FB026B017C0180915D
:100AC000A302823009F450C08091A1028F3F09F443
:100AD0006FC08091A102803209F46CC08091A102A4
:100AE000803309F469C084E026C08091A50290910A
:100AF000A602A091A702B091A802892B8A2B8B2B6A
:100B000009F484CF0E94FB028090A5029090A60277
:100B1000A090A702B090A8026C197D098E099F09C8
:100B200086169706A806B90608F070CF8091A40231
:100B30000E94CD0485E01092AA021092CC0210927D
:100B4000A902DF91CF911F910F91FF90EF90DF905D
:100B5000CF90BF90AF909F908F9008959D9191936B
:100B60008F5F69CF85EEA5CF8091A5029091A602F7
:100B7000A091A702B091A802892B8A2B8B2B09F494
:100B80009ECF0E94FB020091A5021091A602209127
:100B9000A7023091A8026C197D098E099F090617DA
:100BA00017072807390708F08ACFC0CF81E0C3CFE5
:100BB00080E0C1CF82E0BFCF83E0BDCF0895E09158
:100BC0004A0280914902E81730F4F0E0E55BFD4FFE
:100BD000808190E008958FEF9FEF089590914A02F1
:100BE000809149022FEF3FEF981748F4E92FF0E08A
:100BF000E55BFD4F208130E09F5F90934A02C90181
:100C000008958091490290914A02891B990B089599
:100C1000CF92DF92EF92FF920F931F93CF93DF93C8
:100C20007C01CB018A012091A902222389F0EB01EA
:100C30006B01C40ED51ECC15DD0569F06991D70195
:100C4000ED91FC910190F081E02DC7010995F3CF62
:100C5000642F0E948804C801DF91CF911F910F91EA
:100C6000FF90EF90DF90CF900895CF93DF931F9286
:100C7000CDB7DEB769832091A9022223F9F0209134
:100C8000CC02203258F021E030E0FC013383228393
:100C900090E080E00F90DF91CF9108958091AA02BB
:100CA000E82FF0E0E555FD4F998190838F5F8093A9
:100CB000AA028093CC0281E090E0ECCF61E0CE010B
:100CC00001960E948804F7CF90E080E00895CF92CB
:100CD000DF92EF92FF92CF93DF93EC01603282E0DC
:100CE0007807CCF5653B710514F064EB70E0898101
:100CF00028E830E0281B310987FD3395220F331F88
:100D0000220F331F6901330FEE08FF088A8128E59F
:100D100032E0281B310987FD3395220F331F220F44
:100D2000331F032E000C440B550B2C193D094E09A3
:100D30005F09DB0177FF02C0B0E0A0E00E947313FF
:100D400024EB30E040E050E00E944913C20ED31E75
:100D5000E41EF51EB601E881EC3070F5298188E8C3
:100D600090E0821B910927FD9395880F991F880FAA
:100D7000991F681779077CF02A8188E592E0821B29
:100D8000910927FD9395880F991F880F991F681760
:100D900079070CF4CB010297880F991F4FB7F8948D
:100DA0002E2F30E0F901EE0FFF1FE20FF31FEA587C
:100DB000FC4F928381834FBFDF91CF91FF90EF90E3
:100DC000DF90CF900895DC01FB012D9191912223BA
:100DD00081F0992361F08FEB820F8A3108F4205E55
:100DE0008FEB890F8A3108F4905E291771F380E048
:100DF00003C081E09111FBCF08950F931F93CF9310
:100E0000DF938C01FC01C08180ED8C0F863018F4DB
:100E10008181882331F1D0E0C0E06EE571E0209758
:100E2000A1F063E671E0C130D10579F06CE671E0C4
:100E3000C230D10551F062E771E0C330D10529F02D
:100E4000C430D105C1F46DE771E0C8010E94E3062A
:100E500081110BC02196C630D105F9F6CFEFDFEF37
:100E600004C00C2E000CDD0BE097CE01DF91CF917A
:100E70001F910F91089569E871E0C8010E94E3068F
:100E8000882341F3C5E0D0E0F0CF80916E029091CD
:100E90006F028130910521F488E992E00C944D04B1
:100EA000029719F488EA92E0F9CF8FE992E0F6CF41
:100EB000823099F028F4882349F0813059F0089560
:100EC000843089F068F0853089F0089585E692E0F5
:100ED0000C944D048FE892E0FBCF89E892E0F8CFC4
:100EE0008EE792E0F5CF82E792E0F2CF8AE692E0D9
:100EF000EFCFEF92FF920F931F93CF93DF930CE00E
:100F000011E0C0E0D1E08BE9E82E83E0F82EF80193
:100F1000219131918F0188819981A901481B590B39
:100F200043305105B4F00296998388836991799191
:100F3000C7010E94670663E0E60EF11C81E00831FC
:100F4000180729F7DF91CF911F910F91FF90EF9034
:100F500008954E3F5F4F14F40297E6CF39832883FC
:100F6000E5CFCF93DF93ECE0F1E0A8E2B1E0CCE194
:100F7000D1E08D919D91208131812817390714F49A
:100F80009183808389919991208131818217930780
:100F900014F491838083329681E0A433B80749F733
:100FA000DF91CF910895CF93C62F91E09093A9023E
:100FB00092E59093CB021092AA021092CC02682F75
:100FC0008AE693E00E9435066C2F8AE693E00E9441
:100FD000350681E0CF910C94EE048F929F92AF92F0
:100FE000BF920F931F93CF93DF93CDB7DEB7A19737
:100FF0000FB6F894DEBF0FBECDBF19A2423008F481
:101000004AE08E010F5D1F4F842E912CB12CA12C34
:10101000A50194010E947B13E62FB901CA01EA30B1
:1010200044F5E05DD801EE938D01232B242B252B75
:1010300079F790E080E0109769F0FD0101900020C1
:10104000E9F73197AF014A1B5B0BBD018DEC92E0D4
:101050000E946003A1960FB6F894DEBF0FBECDBF0D
:10106000DF91CF911F910F91BF90AF909F908F9084
:101070000895E95CD7CF42E050E061E971E08DEC82
:1010800092E00C946003CF93DF930E944D04EC0137
:101090000E943B088C0F9D1FDF91CF91089589EF2F
:1010A00091E00E94430880EE91E00E94430884ECA6
:1010B00091E00E94430883EA91E00E9443088FE791
:1010C00091E00E94430883E691E00E9443088AE38E
:1010D00091E00E94430888E191E00E94430882E188
:1010E00091E00E94430883ED90E00E94430886E867
:1010F00090E00C944308CF92DF92EF92FF92CF934F
:10110000DF936C01990FEE08FF08F7FE19C06DE23E
:101110008DEC92E00E940004EC0166277727CB015A
:101120006C197D098E099F094AE00E94ED078C0F1A
:101130009D1FDF91CF91FF90EF90DF90CF900895AA
:101140004AE0C701B601DF91CF91FF90EF90DF90A9
:10115000CF900C94ED07CF93DF930E947B08EC01B6
:101160000E943B088C0F9D1FDF91CF9108951F9324
:10117000CF93DF93182F8BEE92E00E944D04C12F86
:10118000D0E0CE010E947B0889EE92E00E944D04DF
:10119000812F0E94580780EE92E0112311F087ED15
:1011A00092E00E944D04CC0FDD1FFE01E050FF4F86
:1011B000808191810E947B0880ED92E00E944D0425
:1011C000C45FDE4F88819981DF91CF911F910C948C
:1011D000AB08CF938EEC92E00E944D040E9445072D
:1011E00085EC92E00E944D048091210290E00E94E3
:1011F0007B0883EC92E00E944D04C09121028C2F69
:101200000E9458078FEB92E00E944D048AEB92E017
:10121000CC2311F085EB92E00E944D04EC2FF0E01E
:10122000EE0FFF1FE050FF4F808191810E947B08ED
:101230008DEA92E00E944D04E0912102F0E0EE0F71
:10124000FF1FE45FFE4F80819181CF910C94AB082A
:10125000EF92FF920F931F93CF93DF930E943B086F
:101260008EE592E00E944D040E94450780E592E0E1
:101270000E944D048091210290E00E947B088EE440
:1012800092E00E944D04809121020E9458070E9422
:101290003B0880E0E82E81E0F82E0CE011E0D0E081
:1012A000C0E08BE492E00E944D04CE010E947B08D6
:1012B00088E492E00E944D048C2F0E94580780E43D
:1012C00092E00E944D04F701819191917F010E946B
:1012D0007B0888E392E00E944D04F801819191918E
:1012E0008F010E94AB082196C630D105D1F60E942D
:1012F0003B0883E092E0DF91CF911F910F91FF9027
:10130000EF900C94430885ED8093BC008091A5027A
:101310009091A602A091A702B091A8020796A11DE4
:10132000B11D23E0B695A795979587952A95D1F796
:101330002091BC0024FD03C01092A30208954091A7
:10134000A5025091A6026091A7027091A802452BB8
:10135000462B472B69F30097A105B10541F02AE21E
:101360002A95F1F700C00197A109B109E1CF809159
:10137000A4020C94CD04CF92DF92EF92FF92809161
:10138000D00181110DC00E9452036093CC01709373
:10139000CD018093CE019093CF0181E08093D00165
:1013A0000E945203C090CC01D090CD01E090CE01BC
:1013B000F090CF016C197D098E099F090E94541489
:1013C0006B017C0120E030E041E654E40E94AC1364
:1013D0000E944F1520E030E040E451E40E94E21406
:1013E0000E941E14665A7F4F70930D0160930C018A
:1013F00020E030E04FE254E4C701B6010E94AC1394
:101400000E944F1520E030E040EA51E40E94E214CF
:101410000E941E14665A7F4F70930F0160930E0155
:1014200020E030E046E154E4C701B6010E94AC136D
:101430000E944F1520E030E040E751E40E94E214A2
:101440000E941E14665A7F4F709311016093100121
:1014500020E030E04AE754E4C701B6010E94AC1333
:101460000E944F1520E030E04CE052E40E94E2146C
:101470000E941E14665A7F4F7093130160931201ED
:1014800020E030E046E954E4C701B6010E94AC1305
:101490000E944F1520E030E040EA51E40E94E2143F
:1014A0000E941E14665A7F4F7093150160931401B9
:1014B00020E030E04AEF53E4C701B6010E94AC13CC
:1014C0000E944F1520E030E040E751E40E94E21412
:1014D0000E941E146A5B7F4F709317016093160180
:1014E000FF90EF90DF90CF900C94B1071F920F9276
:1014F0000FB60F9211242F933F938F939F93AF9327
:10150000BF938091750290917602A0917702B0917D
:1015100078023091740223E0230F2D3758F501969D
:10152000A11DB11D209374028093750290937602E1
:10153000A0937702B09378028091790290917A0219
:10154000A0917B02B0917C020196A11DB11D8093F8
:10155000790290937A02A0937B02B0937C02BF91B0
:10156000AF919F918F913F912F910F900FBE0F9050
:101570001F90189526E8230F0296A11DB11DD2CF0A
:101580001F920F920FB60F9211242F933F934F93F8
:101590005F936F937F938F939F93AF93BF93EF93DB
:1015A000FF938DEC92E00E94DE03FF91EF91BF91DB
:1015B000AF919F918F917F916F915F914F913F91EB
:1015C0002F910F900FBE0F901F9018951F920F92A2
:1015D0000FB60F9211242F938F939F93EF93FF9346
:1015E000E091DD02F091DE028081E091E302F09172
:1015F000E40282FD1BC090818091E6028F5F8F73B1
:101600002091E702821741F0E091E602F0E0E35317
:10161000FD4F958F8093E602FF91EF919F918F91FF
:101620002F910F900FBE0F901F9018958081F4CFCF
:101630001F920F920FB60F9211242F933F934F9347
:101640005F936F937F938F939F93AF93BF93EF932A
:10165000FF938091B900887F803609F44AC0F0F585
:10166000883209F4A7C018F5803109F49BC0B8F49A
:10167000882309F4F9C0883009F494C0FF91EF91F0
:10168000BF91AF919F918F917F916F915F914F919A
:101690003F912F910F900FBE0F901F90189588319A
:1016A00009F488C0803251F78093A10214C08034BD
:1016B00009F49DC040F48033B9F38833F9F6809380
:1016C000A10285ECB0C0803509F485C0883509F4E5
:1016D00096C0883499F60E948309D0CF883909F4DE
:1016E0008CC038F5883729F050F4883611F08037EF
:1016F00029F683E08093A30210921C0257C0883819
:1017000009F47BC0803919F0803809F0B7CF809197
:101710001C02803208F071C0E0911C0281E08E0F43
:1017200080931C028091BB00F0E0E450FE4F808368
:101730003DC0803B39F0E0F4803A09F479C0883A42
:1017400009F09CCF84E08093A3021092FB011092D9
:10175000FA01E0911F02F091200209958091FA01AF
:1017600081110FC081E08093FA011092DA0109C063
:10177000803C09F4A6CF883C09F4A3CF883B09F04C
:101780007DCFE091FB0181E08E0F8093FB01F0E0C3
:10179000E652FE4F80818093BB009091FB018091C7
:1017A000FA0129C080917E028093BB0085EC809372
:1017B000BC0064CF9091A00280919F02981758F5C9
:1017C000E091A00281E08E0F8093A002F0E0E1584A
:1017D000FD4F8081E9CFE091A00281E08E0F8093E0
:1017E000A0028091BB00F0E0E158FD4F8083909112
:1017F000A00280919F029817C8F285E8D8CFE091A7
:10180000A00281E08E0F8093A0028091BB00F0E0E7
:10181000E158FD4F80838091A20281115CCF81E06D
:1018200080937D0284EA8093BC001092A30226CFAD
:1018300085EC8093BC001092A30280911C02803240
:1018400030F4E0911C02F0E0E450FE4F1082609111
:101850001C0270E0E0911D02F0911E028CEF91E0FD
:10186000099510921C020ACF1092A10234CF1F9248
:101870000F920FB60F9211242F933F934F935F93C4
:101880006F937F938F939F93AF93BF93CF93DF9388
:10189000EF93FF938091D801C0919A03D0E087FF26
:1018A00024C010928500109284008091D8018F5F2F
:1018B0008093D8018091D801082E000C990B8C17C9
:1018C0009D0724F48091D8018C30C4F1809184006C
:1018D00090918500049680349C4908F47AC08091E8
:1018E000840090918500049676C08091D801082EDE
:1018F000000C990B8C179D07C4F6E091D8018E2F30
:10190000EE0F990BFC01EE0FFF1FE80FF91FEA58CD
:10191000FC4F808186FFC9CFE091D8018E2FEE0F5A
:10192000990BFC01EE0FFF1FE80FF91FEA58FC4F5F
:10193000808160E08F730E94AF02B7CF2091840056
:1019400030918500E091D8018E2FEE0F990BFC01AC
:10195000EE0FFF1FE80FF91FEA58FC4F81819281BB
:10196000820F931F9093890080938800E091D801A3
:101970008E2FEE0F990BFC01EE0FFF1FE80FF91FE2
:10198000EA58FC4F808186FF11C0E091D8018E2F6C
:10199000EE0F990BFC01EE0FFF1FE80FF91FEA583D
:1019A000FC4F808161E08F730E94AF02FF91EF9145
:1019B000DF91CF91BF91AF919F918F917F916F9167
:1019C0005F914F913F912F910F900FBE0F901F90FD
:1019D000189580E49CE990938900809388008FEFAC
:1019E0008093D801E3CF1092D0021092CF0288EEFC
:1019F00093E0A0E0B0E08093D1029093D202A09354
:101A0000D302B093D4022EE331E03093CE02209380
:101A1000CD0225EC30E03093DA022093D90224EC99
:101A200030E03093DC022093DB0220EC30E0309396
:101A3000DE022093DD0221EC30E03093E0022093BF
:101A4000DF0222EC30E03093E2022093E10226EC48
:101A500030E03093E4022093E3021092E602109209
:101A6000E7021092E8021092E90210926D031092C0
:101A70006C0380936E0390936F03A0937003B093F5
:101A8000710380E591E090936B0380936A03EBE927
:101A9000F3E02DEA33E04FEF68EB7BE080919A03AF
:101AA0008C30B0F491E0980F90939A03808390E08B
:101AB000DC01AA0FBB1FA80FB91FAA58BC4F129672
:101AC0007C936E93119733962E173F0739F708953D
:101AD0004083F9CFCF93DF93CDB7DEB762970FB6D0
:101AE000F894DEBF0FBECDBF789484B5826084BD0C
:101AF00084B5816084BD85B5826085BD85B5816012
:101B000085BD80916E00816080936E00109281008F
:101B1000809181008260809381008091810081604A
:101B2000809381008091800081608093800080910B
:101B3000B10084608093B1008091B0008160809397
:101B4000B00080917A00846080937A0080917A005E
:101B5000826080937A0080917A00816080937A001D
:101B600080917A00806880937A001092C100E091A1
:101B7000DD02F091DE0282E08083E091D902F091F3
:101B8000DA021082E091DB02F091DC0280E18083D6
:101B90001092E502E091E102F091E20286E080839A
:101BA000E091DF02F091E002808180618083E0912A
:101BB000DF02F091E002808188608083E091DF02A3
:101BC000F091E002808180688083E091DF02F091F3
:101BD000E00280818F7D80830BE913E050E0C52E09
:101BE00051E0D52EF12CE12C6CE0B62E72E0A72E40
:101BF000D8018C918C3008F073C0F701EC5CFE4F7B
:101C00002081822F90E0FC01E052FB4F3491FC01D7
:101C1000E453FB4FE491EE23A1F08E2F90E0880F68
:101C2000991FFC01EE50FD4FA591B491FC01EE53BC
:101C3000FB4F859194918FB7F894EC913E2B3C9398
:101C40008FBFF8018081482F50E0FA01EE0FFF1F8F
:101C5000E40FF51FEA58FC4F922F9F732081207CE0
:101C6000292B2083D80111961C92119712961C9251
:101C70006B2D0E9445168B9DA001112430E020E0C1
:101C8000BA01620F731FFB01EE0FFF1FE60FF71F74
:101C9000EA58FC4F908196FD15C02F5F3F4F2C30C6
:101CA000310571F781110EC010928000A092810061
:101CB0001092850010928400B19A80916F0082602A
:101CC00080936F00D801EC918E2F90E0FC01EE0F15
:101CD000FF1FE80FF91FEA58FC4F80818064808362
:101CE000F601619171916F01C8010E946706FFEFD3
:101CF000EF1AFF0A0D5F1F4F26E0E216F10409F00C
:101D000077CF10924A02109249021092AA021092C2
:101D1000CC020E94AF048EE593E090932002809362
:101D20001F028FE593E090931E0280931D0262E3F1
:101D300070E080E090E00E94200365E580EF0E9463
:101D4000D30761E070E080E090E00E94200360E053
:101D50008BEF0E94D30761E070E080E090E00E948A
:101D600020038AE590E090930D0180930C019093FD
:101D70000F0180930E0190931101809310019093B5
:101D800013018093120190931501809314012CE3A9
:101D900030E0309317012093160190930101809356
:101DA00000018CEF92E00E9443080E944F080E94BD
:101DB000E908AE014F5F5F4F58874F83CE0107960A
:101DC0009A878987412C512C32014A94CC24C394A0
:101DD000D12C66E0362E7AE5A72EB12C8DEC92E060
:101DE0000E94BE03181619060CF0B2C18DEC92E0E9
:101DF0000E949C038D3091F38A3009F03AC1E09142
:101E00004202F0E0EE5DFD4F1082AF81B885E32D18
:101E10001D92EA95E9F764E971E082E292E00E949E
:101E200015138E010F5F1F4FF12C009779F0F3E02F
:101E3000FF1671F0F394D8018D939D938D0164E9A1
:101E400071E090E080E00E941513EFCFFF2091F049
:101E500009811A8167E871E0C8010E94E3068111D7
:101E600007C066E971E0C8010E94E306882329F0F3
:101E70000E944F0810924202B1CF69EC71E0C80194
:101E80000E94E306882319F00E942809F3CF6BE92A
:101E900071E0C8010E94E306882359F10E943B08C3
:101EA00089E794E00E94430883E694E00E94430897
:101EB0008DE494E00E94430887E394E00E94430885
:101EC00081E294E00E9443088AE094E00E94430883
:101ED00083EF93E00E9443088FEA93E00E94430857
:101EE00080E693E00E9443088CE193E00E9443085F
:101EF000C1CF60EA71E0C8010E94E306882319F0AF
:101F0000B1E0FB1218C065EA71E0C8010E94E30667
:101F1000811153C062EC71E0C8010E94E306811197
:101F20005CC066EC71E0C8010E94E30681117AC0D2
:101F300081E994E0DBCF0B811C816EE971E0C8017F
:101F40000E94E306811126C069EA71E0C8010E947F
:101F5000E30681111FC060EB71E0C8010E94E30637
:101F600081111FC062EB71E0C8010E94E30681117C
:101F700018C06BEB71E0C8010E94E306811116C026
:101F80006DEB71E0C8010E94E30681110FC085EB83
:101F900094E0ACCFD0926F02C0926E020E94E9082A
:101FA00069CF10926F0210926E02F8CFE2E0F0E07B
:101FB000F0936F02E0936E02F1CFF1E0FF1609F4A7
:101FC000A9CF8B819C810E94FD0697FF03C08BEAFD
:101FD00094E08CCF80932102E1CF23E0F212A1CFD5
:101FE0008B819C810E94FD068C018D819E810E94C7
:101FF000F71217FF03C081EA94E078CFD0926F0206
:10200000C0926E02063050F4F801FF27EE0FFF1F5A
:10201000E45FFE4F918380830E94B107802F0E946E
:10202000B70828CF33E0F31283CF8B819C810E94C5
:10203000FD068C018D819E810E94F71217FF03C05F
:1020400087E894E053CFD0926F02C0926E020630C0
:1020500028F7F801FF27EE0FFF1FE45FFE4FD801BE
:10206000AA0FBB1FA45FBE4F2D913C91820F931FFF
:10207000D1CF9FEC980F963048F490932102D092E4
:102080006F02C0926E020E94E908A8CE8136C9F4A0
:10209000D0926F02C0926E0210912102163068F445
:1020A000E12FF0E0EE0FFF1FE45FFE4F8081918192
:1020B0000297918380830E94B107812F0E94B70805
:1020C0008DCE8A3791F4D0926F02C0926E02109139
:1020D0002102163090F7E12FF0E0EE0FFF1FE45FD2
:1020E000FE4F808191810296E4CF8D3641F28E368B
:1020F00029F410926F0210926E02C5CF843639F423
:1021000042E050E050936F0240936E02BCCF8037A4
:1021100019F40E94280962CE90914202883629F46F
:10212000911103C00E944F0859CE292F30E02F3162
:1021300031050CF053CE40EE480F4F3508F04ECE2F
:102140009F5F909342022E5D3D4FD9018C9346CE06
:102150000E9452030091700210917102209172024C
:1021600030917302601B710B820B930B643171050C
:1021700081059105A8F00E9452036093700270934C
:102180007102809372029093730280916E0290911B
:102190006F028230910589F40E94BB090E94790781
:1021A00080E090E0892B09F419CE0E94CA038823AD
:1021B00009F40FCE0E9400000CCE019779F3EF8155
:1021C000F885232D11922A95E9F781E08093A902E1
:1021D00082E58093CB021092AA021092CC0260E0BA
:1021E0008AE693E00E94350681E00E94EE04182FF3
:1021F0008111D4CF8BEC97E00197F1F70E94FB029D
:102200006B877C878D879E878091A302811174C024
:1022100081E08093A3028093A2029FEF9093A1029A
:102220001092A00295E090939F0280937E0280918D
:102230007E02846A80937E0280917D02813009F063
:10224000C9C010927D020E94FB026B877C878D873C
:102250009E8780917E028093BB008091A502909121
:10226000A602A091A702B091A802892B8A2B8B2BE2
:1022700001F10E94FB022091A5023091A60240913B
:10228000A7025091A8022F87388B498B5A8B2B8538
:102290003C854D855E85621B730B840B950B2F85EA
:1022A000388949895A89261737074807590708F492
:1022B00050C08091BC0083FDCCCF85EC8093BC00E6
:1022C0000E94FB026B877C878D879E878091A3028B
:1022D000813009F481C08091A002863008F0AAC044
:1022E0008091A002EFE7F2E0ABE4B2E01817A9F1A9
:1022F00091919D931F5FFACF8091A5029091A602C4
:10230000A091A702B091A802892B8A2B8B2B09F4EC
:102310007BCF0E94FB022091A5023091A602409142
:10232000A7025091A8022F87388B498B5A8B2B8597
:102330003C854D855E85621B730B840B950B2F8549
:10234000388949895A89261737074807590708F0F5
:102350005BCF8091A4020E94CD0410924A02109398
:102360004902163009F01ACF8E010F5F1F4F8AE61F
:1023700093E00E94EE05D8018D938D01E985FA85E1
:10238000EA17FB07A1F7098110E010931B010093E6
:102390001A01EA80F12CF0921901E09218018E8165
:1023A000982E9094F92DF1709F2EF0936C0291E08D
:1023B000282F2270822E81FD90E090936B028091F5
:1023C00048028820C9F1882309F44BC010924302C7
:1023D00080E047C085EE72CF8091A5029091A60261
:1023E000A091A702B091A802892B8A2B8B2B09F40C
:1023F0006DCF0E94FB022091A5023091A602409170
:10240000A7025091A8022F87388B498B5A8B2B85B6
:102410003C854D855E85621B730B840B950B2F8568
:10242000388949895A89261737074807590708F014
:102430004DCF8FCF86E056CF992029F281110CC065
:102440000E945203609344027093450280934602B7
:10245000909347021092430280914302882379F0BF
:10246000892D8093480280916D02882309F448C029
:1024700082E090E090936F0280936E028DCE209068
:102480006D020E9452032091440230914502409116
:10249000460250914702DC01CB01821B930BA40B37
:1024A000B50B883037E09307A105B105F0F0B09285
:1024B0000D01A0920C01B0920F01A0920E01B092FA
:1024C0001101A0921001B0921301A0921201B092DA
:1024D0001501A09214014CE350E050931701409372
:1024E000160181E080934302BBCF8C3B9240A10553
:1024F000B10508F4B5CF81E0282620926D02F2CF15
:1025000010926F0210926E02980120583109C90191
:1025100037FF04C088279927821B930B10E000E047
:102520000897B4F0032E000C440B550B20583F4F76
:102530004F4F5F4FA6E0B0E00E946813A3019201E5
:102540000E94491389019A01035011092109310997
:10255000970120583109C90137FF04C088279927FE
:10256000821B930B0897A4F1032E000C440B550B10
:1025700020583F4F4F4F5F4FA6E0B0E00E946813D6
:10258000A30192010E9449132350310941095109C5
:10259000000F111F000F111F065A1F4F10930D013E
:1025A00000930C0180910E0190910F01280F391FAB
:1025B00030930F0120930E0181100DC08091160100
:1025C000909117010296992069F00E94B107E6CD1B
:1025D00030E020E0DDCF9920C1F380911601909189
:1025E000170102979093170180931601EECFFC011B
:1025F00088279927E89421912032E9F3293010F0B7
:102600002E30C8F32B3241F02D3239F4689404C0D7
:102610000E944113820F911D219120532A30C0F353
:102620001EF4909581959F4F08954DEA53E00E94C6
:102630001A130895FA01A191B081009719F4109727
:10264000E1F0CD01DC01CD010D90002011F4C001BD
:1026500013C0FB012191222319F02015D9F7F3CFE4
:10266000FB012191201519F41E92119606C0222318
:10267000C1F70D900020A1F7D001FA01A193B0831A
:1026800008957AE0979F902D879F802D910D1124BA
:102690000895052E97FB1EF400940E94601357FDC9
:1026A00007D00E947B1307FC03D04EF40C946013F8
:1026B00050954095309521953F4F4F4F5F4F08956E
:1026C00090958095709561957F4F8F4F9F4F08959E
:1026D0000E949D13A59F900DB49F900DA49F800D07
:1026E000911D11240895B7FF0C9468130E9468137C
:1026F000821B930B0895A1E21A2EAA1BBB1BFD019E
:102700000DC0AA1FBB1FEE1FFF1FA217B307E407D0
:10271000F50720F0A21BB30BE40BF50B661F771F28
:10272000881F991F1A9469F7609570958095909508
:102730009B01AC01BD01CF010895A29FB001B39FE1
:10274000C001A39F700D811D1124911DB29F700DBA
:10275000811D1124911D08950E94C0130C94A8148A
:102760000E94A11458F00E949A1440F029F45F3F8F
:1027700029F00C94911451110C94DC140C949714BE
:102780000E94B91468F39923B1F3552391F3951B73
:10279000550BBB27AA2762177307840738F09F5F82
:1027A0005F4F220F331F441FAA1FA9F335D00E2EEF
:1027B0003AF0E0E832D091505040E695001CCAF75C
:1027C0002BD0FE2F29D0660F771F881FBB1F26171F
:1027D00037074807AB07B0E809F0BB0B802DBF01F6
:1027E000FF2793585F4F3AF09E3F510578F00C94C5
:1027F00091140C94DC145F3FE4F3983ED4F3869577
:1028000077956795B795F7959F5FC9F7880F911DE5
:102810009695879597F90895E1E0660F771F881FD1
:10282000BB1F621773078407BA0720F0621B730B84
:10283000840BBA0BEE1F88F7E09508950E942514CB
:102840006894B1110C94DC1408950E94C11488F0AE
:102850009F5798F0B92F9927B751B0F0E1F0660F64
:10286000771F881F991F1AF0BA95C9F714C0B130A5
:1028700091F00E94DB14B1E008950C94DB14672FF3
:10288000782F8827B85F39F0B93FCCF386957795D4
:102890006795B395D9F73EF49095809570956195BD
:1028A0007F4F8F4F9F4F0895E89409C097FB3EF4E8
:1028B00090958095709561957F4F8F4F9F4F99238D
:1028C000A9F0F92F96E9BB279395F695879577950B
:1028D0006795B795F111F8CFFAF4BB0F11F460FFCB
:1028E0001BC06F5F7F4F8F4F9F4F16C0882311F023
:1028F00096E911C0772321F09EE8872F762F05C037
:10290000662371F096E8862F70E060E02AF09A95D1
:10291000660F771F881FDAF7880F9695879597F9C6
:10292000089597F99F6780E870E060E008959FEF51
:1029300080EC089500240A94161617061806090656
:10294000089500240A941216130614060506089525
:10295000092E0394000C11F4882352F0BB0F40F4AD
:10296000BF2B11F460FF04C06F5F7F4F8F4F9F4FED
:10297000089557FD9058440F551F59F05F3F71F06F
:102980004795880F97FB991F61F09F3F79F08795D6
:102990000895121613061406551FF2CF4695F1DF5F
:1029A00008C0161617061806991FF1CF86957105EF
:1029B000610508940895E894BB2766277727CB0123
:1029C00097F908950E94F5140C94A8140E949A1483
:1029D00038F00E94A11420F0952311F00C9491146A
:1029E0000C94971411240C94DC140E94B91470F305
:1029F000959FC1F3950F50E0551F629FF001729FA4
:102A0000BB27F00DB11D639FAA27F00DB11DAA1FB2
:102A1000649F6627B00DA11D661F829F2227B00DFF
:102A2000A11D621F739FB00DA11D621F839FA00D8A
:102A3000611D221F749F3327A00D611D231F849FDA
:102A4000600D211D822F762F6A2F11249F57504031
:102A50009AF0F1F088234AF0EE0FFF1FBB1F661FAC
:102A6000771F881F91505040A9F79E3F510580F075
:102A70000C9491140C94DC145F3FE4F3983ED4F36F
:102A8000869577956795B795F795E7959F5FC1F719
:102A9000FE2B880F911D9695879597F908959F9322
:102AA0000E9459150F9007FCEE5F0C9482150C9450
:102AB00097140E94C114D8F3E894E0E0BB279F5715
:102AC000F0F02AED3FE049EC06C0EE0FBB0F661FA9
:102AD000771F881F28F0B23A62077307840728F02F
:102AE000B25A620B730B840BE3959A9572F7803898
:102AF00030F49A95BB0F661F771F881FD2F7904856
:102B00000C94FE15EF93E0FF07C0A2EA2AED3FE028
:102B100049EC5FEB0E94A7150E94A8140F90039444
:102B200001FC9058E8E6F0E00C940A160E949A1412
:102B300038F00E94A11420F039F49F3F19F426F4D4
:102B40000C9497140EF4E095E7FB0C949114E92F84
:102B50000E94B91458F3BA176207730784079507E0
:102B600020F079F4A6F50C94DB140EF4E0950B2E0E
:102B7000BA2FA02D0B01B90190010C01CA01A001CF
:102B80001124FF27591B99F0593F50F4503E68F12A
:102B90001A16F040A22F232F342F4427585FF3CF6B
:102BA000469537952795A795F0405395C9F77EF43C
:102BB0001F16BA0B620B730B840BBAF09150A1F085
:102BC000FF0FBB1F661F771F881FC2F70EC0BA0F0B
:102BD000621F731F841F48F4879577956795B79593
:102BE000F7959E3F08F0B0CF9395880F08F099278E
:102BF000EE0F9795879508959F3F31F0915020F4FF
:102C0000879577956795B795880F911D96958795C8
:102C100097F908959F938F937F936F93FF93EF930B
:102C20009B01AC010E94E214EF91FF910E941E16DD
:102C30002F913F914F915F910C94E214DF93CF93CA
:102C40001F930F93FF92EF92DF927B018C016894A8
:102C500006C0DA2EEF010E94F514FE01E894A5915A
:102C60002591359145915591A6F3EF010E94A71545
:102C7000FE019701A801DA9469F7DF90EF90FF90C9
:102C80000F911F91CF91DF910895991B79E004C0B6
:102C9000991F961708F0961B881F7A95C9F780959B
:102CA0000895EE0FFF1F0590F491E02D0994F8941C
:102CB000FFCF5A005A005A005A005A003C005A00EE
:102CC0005A005A005A005A003C00800080006E00F2
:102CD000A000A000B400A0006E0046001400140084
:102CE000000014001400030506090A0B0000000090
:102CF000000460038D036804BE039C03B00300005E
:102D00000000350608066406DE050106EE05DF054F
:102D1000626173650073686F756C64657200656CE1
:102D2000626F770077726973745F726F6C6C007793
:102D3000726973745F706974636800677269707038
:102D40006572000D0A00200068656C700070696E85
:102D500073006D6F64650073656C00736572696103
:102D60006C006E006E756E636875636B0064006462
:0E2D7000656D6F00736574007374657000000C
:107E0000112484B714BE81FFF0D085E080938100F7
:107E100082E08093C00088E18093C10086E0809377
:107E2000C20080E18093C4008EE0C9D0259A86E02C
:107E300020E33CEF91E0309385002093840096BBD3
:107E4000B09BFECF1D9AA8958150A9F7CC24DD24C4
:107E500088248394B5E0AB2EA1E19A2EF3E0BF2EE7
:107E6000A2D0813461F49FD0082FAFD0023811F036
:107E7000013811F484E001C083E08DD089C08234E0
:107E800011F484E103C0853419F485E0A6D080C0E4
:107E9000853579F488D0E82EFF2485D0082F10E0AE
:107EA000102F00270E291F29000F111F8ED06801E7
:107EB0006FC0863521F484E090D080E0DECF843638
:107EC00009F040C070D06FD0082F6DD080E0C81688
:107ED00080E7D80618F4F601B7BEE895C0E0D1E017
:107EE00062D089930C17E1F7F0E0CF16F0E7DF06D8
:107EF00018F0F601B7BEE89568D007B600FCFDCFD4
:107F0000A601A0E0B1E02C9130E011968C91119780
:107F100090E0982F8827822B932B1296FA010C0160
:107F200087BEE89511244E5F5F4FF1E0A038BF0790
:107F300051F7F601A7BEE89507B600FCFDCF97BE46
:107F4000E89526C08437B1F42ED02DD0F82E2BD052
:107F50003CD0F601EF2C8F010F5F1F4F84911BD097
:107F6000EA94F801C1F70894C11CD11CFA94CF0C13
:107F7000D11C0EC0853739F428D08EE10CD085E9AC
:107F80000AD08FE07ACF813511F488E018D01DD067
:107F900080E101D065CF982F8091C00085FFFCCF94
:107FA0009093C60008958091C00087FFFCCF809118
:107FB000C00084FD01C0A8958091C6000895E0E648
:107FC000F0E098E1908380830895EDDF803219F02E
:107FD00088E0F5DFFFCF84E1DECF1F93182FE3DFCA
:107FE0001150E9F7F2DF1F91089580E0E8DFEE27F6
:047FF000FF270994CA
:027FFE00040479
:00000001FF
